000CD SUL                             CD SUL                             2406191201OCO502406001
540OCORR502406001
54187712055000102TRANSPORTES DUMAR LTDA
542886349770001013  00016484800118062019100003                                                                                1         1    588327      188634     000000000000000000000000000000000000000000000000000000000000003  000164848
542886349770001013  00016534100118062019100003                                                                                1         1    588327      188634     000000000000000000000000000000000000000000000000000000000000003  000165341
542886349770001013  00016670709118062019093200                                                                                1         1    591703      188634     000000000000000000000000000000000000000000000000000000000000003  000166707
543AG  04/07
542886349770001013  00016736220917062019091900                                                                                1         1    594469      188634     000000000000000000000000000000000000000000000000000000000000003  000167362
542886349770001013  00016737720917062019091000                                                                                1         1    594471      188634     000000000000000000000000000000000000000000000000000000000000003  000167377
542886349770001013  00016737700118062019122603                                                                                1         1    594471      188634     000000000000000000000000000000000000000000000000000000000000003  000167377
542886349770001013  00016732500118062019094703                                                                                1         1    594473      188634     000000000000000000000000000000000000000000000000000000000000003  000167325
542886349770001013  00016740100118062019094703                                                                                1         1    594473      188634     000000000000000000000000000000000000000000000000000000000000003  000167401
542886349770001013  00016738220917062019092200                                                                                1         1    594474      188634     000000000000000000000000000000000000000000000000000000000000003  000167382
542886349770001013  00016738200118062019110003                                                                                1         1    594474      188634     000000000000000000000000000000000000000000000000000000000000003  000167382
542886349770001013  00016745300117062019153503                                                                                1         1    594476      188634     000000000000000000000000000000000000000000000000000000000000003  000167453
542886349770001013  00016740820917062019091300                                                                                1         1    594477      188634     000000000000000000000000000000000000000000000000000000000000003  000167408
542886349770001013  00016740800119062019163003                                                                                1         1    594477      188634     000000000000000000000000000000000000000000000000000000000000003  000167408
542886349770001013  00016741020917062019091300                                                                                1         1    594477      188634     000000000000000000000000000000000000000000000000000000000000003  000167410
542886349770001013  00016741000119062019163003                                                                                1         1    594477      188634     000000000000000000000000000000000000000000000000000000000000003  000167410
542886349770001013  00016746600117062019100003                                                                                1         1    594478      188634     000000000000000000000000000000000000000000000000000000000000003  000167466
542886349770001013  00016744420917062019091800                                                                                1         1    594479      188634     000000000000000000000000000000000000000000000000000000000000003  000167444
542886349770001013  00016744400118062019133003                                                                                1         1    594479      188634     000000000000000000000000000000000000000000000000000000000000003  000167444
542886349770001013  00016741320917062019092000                                                                                1         1    594480      188634     000000000000000000000000000000000000000000000000000000000000003  000167413
542886349770001013  00016737609118062019155700                                                                                1         1    594482      188634     000000000000000000000000000000000000000000000000000000000000003  000167376
543AG 08/07
542886349770001013  00016739209118062019155500                                                                                1         1    594482      188634     000000000000000000000000000000000000000000000000000000000000003  000167392
543AG 02/07
542886349770001013  00016743200117062019095503                                                                                1         1    594484      188634     000000000000000000000000000000000000000000000000000000000000003  000167432
542886349770001013  00016744920917062019092100                                                                                1         1    594485      188634     000000000000000000000000000000000000000000000000000000000000003  000167449
542886349770001013  00016744900118062019080003                                                                                1         1    594485      188634     000000000000000000000000000000000000000000000000000000000000003  000167449
542886349770001013  00016745020917062019092100                                                                                1         1    594485      188634     000000000000000000000000000000000000000000000000000000000000003  000167450
542886349770001013  00016745000118062019080003                                                                                1         1    594485      188634     000000000000000000000000000000000000000000000000000000000000003  000167450
542886349770001013  00016748600117062019144003                                                                                1         1    594704      188634     000000000000000000000000000000000000000000000000000000000000003  000167486
542886349770001013  00016763820917062019091400                                                                                1         1    594705      188634     000000000000000000000000000000000000000000000000000000000000003  000167638
542886349770001013  00016763800118062019163003                                                                                1         1    594705      188634     000000000000000000000000000000000000000000000000000000000000003  000167638
542886349770001013  00016751400118062019095003                                                                                1         1    594706      188634     000000000000000000000000000000000000000000000000000000000000003  000167514
542886349770001013  00016751600118062019095003                                                                                1         1    594706      188634     000000000000000000000000000000000000000000000000000000000000003  000167516
542886349770001013  00016764400119062019114503                                                                                1         1    594707      188634     000000000000000000000000000000000000000000000000000000000000003  000167644
542886349770001013  00016751920917062019091700                                                                                1         1    594708      188634     000000000000000000000000000000000000000000000000000000000000003  000167519
542886349770001013  00016751900118062019103503                                                                                1         1    594708      188634     000000000000000000000000000000000000000000000000000000000000003  000167519
542886349770001013  00016764020917062019091400                                                                                1         1    594709      188634     000000000000000000000000000000000000000000000000000000000000003  000167640
542886349770001013  00016764000119062019121503                                                                                1         1    594709      188634     000000000000000000000000000000000000000000000000000000000000003  000167640
542886349770001013  00016763600117062019164003                                                                                1         1    594710      188634     000000000000000000000000000000000000000000000000000000000000003  000167636
542886349770001013  00016748720917062019092200                                                                                1         1    594711      188634     000000000000000000000000000000000000000000000000000000000000003  000167487
542886349770001013  00016748700119062019093003                                                                                1         1    594711      188634     000000000000000000000000000000000000000000000000000000000000003  000167487
542886349770001013  00016771620917062019092300                                                                                1         1    595132      188634     000000000000000000000000000000000000000000000000000000000000003  000167716
542886349770001013  00016771600118062019110003                                                                                1         1    595132      188634     000000000000000000000000000000000000000000000000000000000000003  000167716
542886349770001013  00016773020917062019091100                                                                                1         1    595133      188634     000000000000000000000000000000000000000000000000000000000000003  000167730
542886349770001013  00016773000117062019133003                                                                                1         1    595133      188634     000000000000000000000000000000000000000000000000000000000000003  000167730
542886349770001013  00016773100118062019153003                                                                                1         1    595134      188634     000000000000000000000000000000000000000000000000000000000000003  000167731
542886349770001013  00016783900117062019144003                                                                                1         1    595135      188634     000000000000000000000000000000000000000000000000000000000000003  000167839
542886349770001013  00016791820917062019091600                                                                                1         1    595399      188634     000000000000000000000000000000000000000000000000000000000000003  000167918
542886349770001013  00016791800118062019104003                                                                                1         1    595399      188634     000000000000000000000000000000000000000000000000000000000000003  000167918
542886349770001013  00016786120917062019091400                                                                                1         1    595400      188634     000000000000000000000000000000000000000000000000000000000000003  000167861
542886349770001013  00016786100118062019092503                                                                                1         1    595400      188634     000000000000000000000000000000000000000000000000000000000000003  000167861
542886349770001013  00016792220917062019091800                                                                                1         1    595401      188634     000000000000000000000000000000000000000000000000000000000000003  000167922
542886349770001013  00016792200118062019100503                                                                                1         1    595401      188634     000000000000000000000000000000000000000000000000000000000000003  000167922
542886349770001013  00016784420917062019091500                                                                                1         1    595402      188634     000000000000000000000000000000000000000000000000000000000000003  000167844
542886349770001013  00016784400117062019174803                                                                                1         1    595402      188634     000000000000000000000000000000000000000000000000000000000000003  000167844
542886349770001013  00016791620917062019091900                                                                                1         1    595403      188634     000000000000000000000000000000000000000000000000000000000000003  000167916
542886349770001013  00016803920818062019151800                                                                                1         1    595884      188634     000000000000000000000000000000000000000000000000000000000000003  000168039
542886349770001013  00016803920924062019110500                                                                                1         1    595884      188634     000000000000000000000000000000000000000000000000000000000000003  000168039
542886349770001013  00016802820819062019140600                                                                                1         1    595885      188634     000000000000000000000000000000000000000000000000000000000000003  000168028
542886349770001013  00016802820919062019140600                                                                                1         1    595885      188634     000000000000000000000000000000000000000000000000000000000000003  000168028
542886349770001013  00016802800121062019160003                                                                                1         1    595885      188634     000000000000000000000000000000000000000000000000000000000000003  000168028
542886349770001013  00016802920819062019140600                                                                                1         1    595885      188634     000000000000000000000000000000000000000000000000000000000000003  000168029
542886349770001013  00016802920919062019140600                                                                                1         1    595885      188634     000000000000000000000000000000000000000000000000000000000000003  000168029
542886349770001013  00016802900121062019160003                                                                                1         1    595885      188634     000000000000000000000000000000000000000000000000000000000000003  000168029
542886349770001013  00016804120818062019151800                                                                                1         1    595886      188634     000000000000000000000000000000000000000000000000000000000000003  000168041
542886349770001013  00016804120924062019110400                                                                                1         1    595886      188634     000000000000000000000000000000000000000000000000000000000000003  000168041
542886349770001013  00016801820818062019151800                                                                                1         1    595887      188634     000000000000000000000000000000000000000000000000000000000000003  000168018
542886349770001013  00016801820924062019110700                                                                                1         1    595887      188634     000000000000000000000000000000000000000000000000000000000000003  000168018
542886349770001013  00016813120821062019151900                                                                                1         1    596396      188634     000000000000000000000000000000000000000000000000000000000000003  000168131
542886349770001013  00016813120924062019110800                                                                                1         1    596396      188634     000000000000000000000000000000000000000000000000000000000000003  000168131
542886349770001013  00016809420821062019151900                                                                                1         1    596397      188634     000000000000000000000000000000000000000000000000000000000000003  000168094
542886349770001013  00016809420924062019111200                                                                                1         1    596397      188634     000000000000000000000000000000000000000000000000000000000000003  000168094
542886349770001013  00016817205121062019101000                                                                                1         1    596398      188634     000000000000000000000000000000000000000000000000000000000000003  000168172
542886349770001013  00016817220821062019151900                                                                                1         1    596398      188634     000000000000000000000000000000000000000000000000000000000000003  000168172
542886349770001013  00016817220924062019110900                                                                                1         1    596398      188634     000000000000000000000000000000000000000000000000000000000000003  000168172
542886349770001013  00016818920821062019151900                                                                                1         1    596399      188634     000000000000000000000000000000000000000000000000000000000000003  000168189
542886349770001013  00016818920924062019111000                                                                                1         1    596399      188634     000000000000000000000000000000000000000000000000000000000000003  000168189
542886349770001013  00016809820821062019151900                                                                                1         1    596400      188634     000000000000000000000000000000000000000000000000000000000000003  000168098
542886349770001013  00016809820924062019111000                                                                                1         1    596400      188634     000000000000000000000000000000000000000000000000000000000000003  000168098
542886349770001013  00016809020821062019152000                                                                                1         1    596401      188634     000000000000000000000000000000000000000000000000000000000000003  000168090
542886349770001013  00016809020924062019110600                                                                                1         1    596401      188634     000000000000000000000000000000000000000000000000000000000000003  000168090
542886349770001013  00016819420821062019152000                                                                                1         1    596402      188634     000000000000000000000000000000000000000000000000000000000000003  000168194
542886349770001013  00016819420924062019111200                                                                                1         1    596402      188634     000000000000000000000000000000000000000000000000000000000000003  000168194
542886349770001013  00016817105121062019101000                                                                                1         1    596403      188634     000000000000000000000000000000000000000000000000000000000000003  000168171
542886349770001013  00016817120821062019152000                                                                                1         1    596403      188634     000000000000000000000000000000000000000000000000000000000000003  000168171
542886349770001013  00016817120924062019110900                                                                                1         1    596403      188634     000000000000000000000000000000000000000000000000000000000000003  000168171
542886349770001013  00016812920821062019152100                                                                                1         1    596404      188634     000000000000000000000000000000000000000000000000000000000000003  000168129
542886349770001013  00016812920924062019111200                                                                                1         1    596404      188634     000000000000000000000000000000000000000000000000000000000000003  000168129
542886349770001013  00016814720824062019110400                                                                                1         1    596633      188634     000000000000000000000000000000000000000000000000000000000000003  000168147
5490087
